{
  "_format": "hh-sol-artifact-1",
  "contractName": "AuditBadgeRegistry",
  "sourceName": "contracts/AuditBadgeRegistry.sol",
  "abi": [
    {
      "inputs": [
        {
          "internalType": "address",
          "name": "initialOwner",
          "type": "address"
        }
      ],
      "stateMutability": "nonpayable",
      "type": "constructor"
    },
    {
      "inputs": [
        {
          "internalType": "uint256",
          "name": "tokenId",
          "type": "uint256"
        }
      ],
      "name": "BadgeNotFound",
      "type": "error"
    },
    {
      "inputs": [
        {
          "internalType": "string",
          "name": "field",
          "type": "string"
        }
      ],
      "name": "EmptyValue",
      "type": "error"
    },
    {
      "inputs": [],
      "name": "NotAuthorized",
      "type": "error"
    },
    {
      "inputs": [],
      "name": "NotOwner",
      "type": "error"
    },
    {
      "inputs": [],
      "name": "ZeroAddress",
      "type": "error"
    },
    {
      "anonymous": false,
      "inputs": [
        {
          "indexed": true,
          "internalType": "uint256",
          "name": "tokenId",
          "type": "uint256"
        },
        {
          "indexed": true,
          "internalType": "address",
          "name": "recipient",
          "type": "address"
        },
        {
          "indexed": false,
          "internalType": "string",
          "name": "badgeType",
          "type": "string"
        },
        {
          "indexed": false,
          "internalType": "string",
          "name": "caseId",
          "type": "string"
        },
        {
          "indexed": false,
          "internalType": "string",
          "name": "anchorId",
          "type": "string"
        },
        {
          "indexed": false,
          "internalType": "string",
          "name": "metadataUri",
          "type": "string"
        },
        {
          "indexed": false,
          "internalType": "uint256",
          "name": "issuedAt",
          "type": "uint256"
        },
        {
          "indexed": false,
          "internalType": "uint256",
          "name": "mintedAt",
          "type": "uint256"
        },
        {
          "indexed": true,
          "internalType": "address",
          "name": "submitter",
          "type": "address"
        }
      ],
      "name": "BadgeIssued",
      "type": "event"
    },
    {
      "anonymous": false,
      "inputs": [
        {
          "indexed": true,
          "internalType": "address",
          "name": "previousOwner",
          "type": "address"
        },
        {
          "indexed": true,
          "internalType": "address",
          "name": "newOwner",
          "type": "address"
        }
      ],
      "name": "OwnershipTransferred",
      "type": "event"
    },
    {
      "anonymous": false,
      "inputs": [
        {
          "indexed": true,
          "internalType": "address",
          "name": "relayer",
          "type": "address"
        },
        {
          "indexed": false,
          "internalType": "bool",
          "name": "enabled",
          "type": "bool"
        }
      ],
      "name": "RelayerUpdated",
      "type": "event"
    },
    {
      "inputs": [
        {
          "internalType": "uint256",
          "name": "tokenId",
          "type": "uint256"
        }
      ],
      "name": "getBadge",
      "outputs": [
        {
          "components": [
            {
              "internalType": "uint256",
              "name": "tokenId",
              "type": "uint256"
            },
            {
              "internalType": "address",
              "name": "recipient",
              "type": "address"
            },
            {
              "internalType": "string",
              "name": "badgeType",
              "type": "string"
            },
            {
              "internalType": "string",
              "name": "caseId",
              "type": "string"
            },
            {
              "internalType": "string",
              "name": "anchorId",
              "type": "string"
            },
            {
              "internalType": "string",
              "name": "metadataUri",
              "type": "string"
            },
            {
              "internalType": "uint256",
              "name": "issuedAt",
              "type": "uint256"
            },
            {
              "internalType": "uint256",
              "name": "mintedAt",
              "type": "uint256"
            },
            {
              "internalType": "address",
              "name": "submitter",
              "type": "address"
            },
            {
              "internalType": "bool",
              "name": "exists",
              "type": "bool"
            }
          ],
          "internalType": "struct AuditBadgeRegistry.Badge",
          "name": "",
          "type": "tuple"
        }
      ],
      "stateMutability": "view",
      "type": "function"
    },
    {
      "inputs": [
        {
          "internalType": "address",
          "name": "",
          "type": "address"
        }
      ],
      "name": "isRelayer",
      "outputs": [
        {
          "internalType": "bool",
          "name": "",
          "type": "bool"
        }
      ],
      "stateMutability": "view",
      "type": "function"
    },
    {
      "inputs": [
        {
          "internalType": "address",
          "name": "recipient",
          "type": "address"
        },
        {
          "internalType": "string",
          "name": "badgeType",
          "type": "string"
        },
        {
          "internalType": "string",
          "name": "caseId",
          "type": "string"
        },
        {
          "internalType": "string",
          "name": "anchorId",
          "type": "string"
        },
        {
          "internalType": "string",
          "name": "metadataUri",
          "type": "string"
        },
        {
          "internalType": "uint256",
          "name": "issuedAt",
          "type": "uint256"
        }
      ],
      "name": "issueBadge",
      "outputs": [
        {
          "internalType": "uint256",
          "name": "tokenId",
          "type": "uint256"
        }
      ],
      "stateMutability": "nonpayable",
      "type": "function"
    },
    {
      "inputs": [],
      "name": "nextTokenId",
      "outputs": [
        {
          "internalType": "uint256",
          "name": "",
          "type": "uint256"
        }
      ],
      "stateMutability": "view",
      "type": "function"
    },
    {
      "inputs": [],
      "name": "owner",
      "outputs": [
        {
          "internalType": "address",
          "name": "",
          "type": "address"
        }
      ],
      "stateMutability": "view",
      "type": "function"
    },
    {
      "inputs": [
        {
          "internalType": "address",
          "name": "relayer",
          "type": "address"
        },
        {
          "internalType": "bool",
          "name": "enabled",
          "type": "bool"
        }
      ],
      "name": "setRelayer",
      "outputs": [],
      "stateMutability": "nonpayable",
      "type": "function"
    },
    {
      "inputs": [
        {
          "internalType": "address",
          "name": "newOwner",
          "type": "address"
        }
      ],
      "name": "transferOwnership",
      "outputs": [],
      "stateMutability": "nonpayable",
      "type": "function"
    }
  ],
  "bytecode": "0x6080604052600160025534801561001557600080fd5b50604051611016380380611016833981016040819052610034916100a9565b6001600160a01b03811661005b5760405163d92e233d60e01b815260040160405180910390fd5b600080546001600160a01b0319166001600160a01b03831690811782556040519091907f8be0079c531659141344cd1fd0a4f28419497f9722a3daafe3b4186f6b6457e0908290a3506100d9565b6000602082840312156100bb57600080fd5b81516001600160a01b03811681146100d257600080fd5b9392505050565b610f2e806100e86000396000f3fe608060405234801561001057600080fd5b506004361061007d5760003560e01c80638d8386221161005b5780638d838622146100e45780638da5cb5b14610104578063ecd8dc3a1461012f578063f2fde38b1461014457600080fd5b8063541d55481461008257806362b82b47146100ba57806375794a3c146100db575b600080fd5b6100a5610090366004610a16565b60016020526000908152604090205460ff1681565b60405190151581526020015b60405180910390f35b6100cd6100c8366004610a81565b610157565b6040519081526020016100b1565b6100cd60025481565b6100f76100f2366004610b62565b610555565b6040516100b19190610bc1565b600054610117906001600160a01b031681565b6040516001600160a01b0390911681526020016100b1565b61014261013d366004610ca8565b6108a7565b005b610142610152366004610a16565b610958565b600080546001600160a01b031633148061018057503360009081526001602052604090205460ff165b61019d5760405163ea8e4eb560e01b815260040160405180910390fd5b6001600160a01b038b166101c45760405163d92e233d60e01b815260040160405180910390fd5b600089900361020757604051632b8f831760e01b815260206004820152600960248201526862616467655479706560b81b60448201526064015b60405180910390fd5b600087900361024257604051632b8f831760e01b815260206004820152600660248201526518d85cd9525960d21b60448201526064016101fe565b600085900361027f57604051632b8f831760e01b8152602060048201526008602482015267185b98da1bdc925960c21b60448201526064016101fe565b816000036102bb57604051632b8f831760e01b81526020600482015260086024820152671a5cdcdd5959105d60c21b60448201526064016101fe565b50600280549060019060006102d08385610ce4565b909155505060408051610140810182528281526001600160a01b038d166020808301919091528251601f8d0182900482028101820184528c815242938301918e908e9081908401838280828437600092019190915250505090825250604080516020601f8d018190048102820181019092528b815291810191908c908c9081908401838280828437600092019190915250505090825250604080516020601f8b0181900481028201810190925289815291810191908a908a9081908401838280828437600092019190915250505090825250604080516020601f890181900481028201810190925287815291810191908890889081908401838280828437600092018290525093855250505060208083018790526040808401869052336060850152600160809094018490528683526003825291829020845181559084015192810180546001600160a01b0319166001600160a01b039094169390931790925582015160028201906104429082610da4565b50606082015160038201906104579082610da4565b506080820151600482019061046c9082610da4565b5060a082015160058201906104819082610da4565b5060c0820151816006015560e082015181600701556101008201518160080160006101000a8154816001600160a01b0302191690836001600160a01b031602179055506101208201518160080160146101000a81548160ff021916908315150217905550905050336001600160a01b03168c6001600160a01b0316837f3103b462608ad5c46051864542587b5e9a3dd8b705bf825c63f6472575844c508e8e8e8e8e8e8e8e8e8d60405161053e9a99989796959493929190610e8d565b60405180910390a4509a9950505050505050505050565b6105bf6040518061014001604052806000815260200160006001600160a01b0316815260200160608152602001606081526020016060815260200160608152602001600081526020016000815260200160006001600160a01b031681526020016000151581525090565b60008281526003602090815260408083208151610140810183528154815260018201546001600160a01b031693810193909352600281018054919284019161060690610d1b565b80601f016020809104026020016040519081016040528092919081815260200182805461063290610d1b565b801561067f5780601f106106545761010080835404028352916020019161067f565b820191906000526020600020905b81548152906001019060200180831161066257829003601f168201915b5050505050815260200160038201805461069890610d1b565b80601f01602080910402602001604051908101604052809291908181526020018280546106c490610d1b565b80156107115780601f106106e657610100808354040283529160200191610711565b820191906000526020600020905b8154815290600101906020018083116106f457829003601f168201915b5050505050815260200160048201805461072a90610d1b565b80601f016020809104026020016040519081016040528092919081815260200182805461075690610d1b565b80156107a35780601f10610778576101008083540402835291602001916107a3565b820191906000526020600020905b81548152906001019060200180831161078657829003601f168201915b505050505081526020016005820180546107bc90610d1b565b80601f01602080910402602001604051908101604052809291908181526020018280546107e890610d1b565b80156108355780601f1061080a57610100808354040283529160200191610835565b820191906000526020600020905b81548152906001019060200180831161081857829003601f168201915b505050918352505060068201546020820152600782015460408201526008909101546001600160a01b0381166060830152600160a01b900460ff1615156080909101526101208101519091506108a15760405163dc29602f60e01b8152600481018490526024016101fe565b92915050565b6000546001600160a01b031633146108d2576040516330cd747160e01b815260040160405180910390fd5b6001600160a01b0382166108f95760405163d92e233d60e01b815260040160405180910390fd5b6001600160a01b038216600081815260016020908152604091829020805460ff191685151590811790915591519182527f4b36b2e66f38ed349bec532105790177f1283bcbc094e6cd48565195d3033c43910160405180910390a25050565b6000546001600160a01b03163314610983576040516330cd747160e01b815260040160405180910390fd5b6001600160a01b0381166109aa5760405163d92e233d60e01b815260040160405180910390fd5b600080546001600160a01b038381166001600160a01b0319831681178455604051919092169283917f8be0079c531659141344cd1fd0a4f28419497f9722a3daafe3b4186f6b6457e09190a35050565b80356001600160a01b0381168114610a1157600080fd5b919050565b600060208284031215610a2857600080fd5b610a31826109fa565b9392505050565b60008083601f840112610a4a57600080fd5b50813567ffffffffffffffff811115610a6257600080fd5b602083019150836020828501011115610a7a57600080fd5b9250929050565b60008060008060008060008060008060c08b8d031215610aa057600080fd5b610aa98b6109fa565b995060208b013567ffffffffffffffff80821115610ac657600080fd5b610ad28e838f01610a38565b909b50995060408d0135915080821115610aeb57600080fd5b610af78e838f01610a38565b909950975060608d0135915080821115610b1057600080fd5b610b1c8e838f01610a38565b909750955060808d0135915080821115610b3557600080fd5b50610b428d828e01610a38565b9150809450508092505060a08b013590509295989b9194979a5092959850565b600060208284031215610b7457600080fd5b5035919050565b6000815180845260005b81811015610ba157602081850181015186830182015201610b85565b506000602082860101526020601f19601f83011685010191505092915050565b602081528151602082015260006020830151610be860408401826001600160a01b03169052565b506040830151610140806060850152610c05610160850183610b7b565b91506060850151601f1980868503016080870152610c238483610b7b565b935060808701519150808685030160a0870152610c408483610b7b565b935060a08701519150808685030160c087015250610c5e8382610b7b565b92505060c085015160e085015260e0850151610100818187015280870151915050610120610c96818701836001600160a01b03169052565b90950151151593019290925250919050565b60008060408385031215610cbb57600080fd5b610cc4836109fa565b915060208301358015158114610cd957600080fd5b809150509250929050565b808201808211156108a157634e487b7160e01b600052601160045260246000fd5b634e487b7160e01b600052604160045260246000fd5b600181811c90821680610d2f57607f821691505b602082108103610d4f57634e487b7160e01b600052602260045260246000fd5b50919050565b601f821115610d9f57600081815260208120601f850160051c81016020861015610d7c5750805b601f850160051c820191505b81811015610d9b57828155600101610d88565b5050505b505050565b815167ffffffffffffffff811115610dbe57610dbe610d05565b610dd281610dcc8454610d1b565b84610d55565b602080601f831160018114610e075760008415610def5750858301515b600019600386901b1c1916600185901b178555610d9b565b600085815260208120601f198616915b82811015610e3657888601518255948401946001909101908401610e17565b5085821015610e545787850151600019600388901b60f8161c191681555b5050505050600190811b01905550565b81835281816020850137506000828201602090810191909152601f909101601f19169091010190565b60c081526000610ea160c083018c8e610e64565b8281036020840152610eb4818b8d610e64565b90508281036040840152610ec981898b610e64565b90508281036060840152610ede818789610e64565b6080840195909552505060a001529897505050505050505056fea2646970667358221220ae4532b137cb14732bc798e6165ff55c195cab2fc6e8c6b329bb01ad60024ab564736f6c63430008140033",
  "linkReferences": {},
  "deployedLinkReferences": {}
}