{
  "_format": "hh-sol-artifact-1",
  "contractName": "AuditEventRegistry",
  "sourceName": "contracts/AuditEventRegistry.sol",
  "abi": [
    {
      "inputs": [
        {
          "internalType": "address",
          "name": "initialOwner",
          "type": "address"
        }
      ],
      "stateMutability": "nonpayable",
      "type": "constructor"
    },
    {
      "inputs": [
        {
          "internalType": "bytes32",
          "name": "anchorId",
          "type": "bytes32"
        }
      ],
      "name": "AnchorAlreadyExists",
      "type": "error"
    },
    {
      "inputs": [
        {
          "internalType": "bytes32",
          "name": "anchorId",
          "type": "bytes32"
        }
      ],
      "name": "AnchorNotFound",
      "type": "error"
    },
    {
      "inputs": [
        {
          "internalType": "string",
          "name": "field",
          "type": "string"
        }
      ],
      "name": "EmptyValue",
      "type": "error"
    },
    {
      "inputs": [],
      "name": "NotAuthorized",
      "type": "error"
    },
    {
      "inputs": [],
      "name": "NotOwner",
      "type": "error"
    },
    {
      "inputs": [],
      "name": "ZeroAddress",
      "type": "error"
    },
    {
      "anonymous": false,
      "inputs": [
        {
          "indexed": true,
          "internalType": "bytes32",
          "name": "anchorId",
          "type": "bytes32"
        },
        {
          "indexed": true,
          "internalType": "bytes32",
          "name": "eventHash",
          "type": "bytes32"
        },
        {
          "indexed": false,
          "internalType": "string",
          "name": "eventType",
          "type": "string"
        },
        {
          "indexed": false,
          "internalType": "string",
          "name": "entityId",
          "type": "string"
        },
        {
          "indexed": false,
          "internalType": "string",
          "name": "ipfsCid",
          "type": "string"
        },
        {
          "indexed": false,
          "internalType": "uint256",
          "name": "occurredAt",
          "type": "uint256"
        },
        {
          "indexed": false,
          "internalType": "uint256",
          "name": "anchoredAt",
          "type": "uint256"
        },
        {
          "indexed": true,
          "internalType": "address",
          "name": "submitter",
          "type": "address"
        }
      ],
      "name": "EventAnchored",
      "type": "event"
    },
    {
      "anonymous": false,
      "inputs": [
        {
          "indexed": true,
          "internalType": "address",
          "name": "previousOwner",
          "type": "address"
        },
        {
          "indexed": true,
          "internalType": "address",
          "name": "newOwner",
          "type": "address"
        }
      ],
      "name": "OwnershipTransferred",
      "type": "event"
    },
    {
      "anonymous": false,
      "inputs": [
        {
          "indexed": true,
          "internalType": "address",
          "name": "relayer",
          "type": "address"
        },
        {
          "indexed": false,
          "internalType": "bool",
          "name": "enabled",
          "type": "bool"
        }
      ],
      "name": "RelayerUpdated",
      "type": "event"
    },
    {
      "inputs": [
        {
          "internalType": "bytes32",
          "name": "anchorId",
          "type": "bytes32"
        },
        {
          "internalType": "bytes32",
          "name": "eventHash",
          "type": "bytes32"
        },
        {
          "internalType": "string",
          "name": "eventType",
          "type": "string"
        },
        {
          "internalType": "string",
          "name": "entityId",
          "type": "string"
        },
        {
          "internalType": "string",
          "name": "ipfsCid",
          "type": "string"
        },
        {
          "internalType": "uint256",
          "name": "occurredAt",
          "type": "uint256"
        }
      ],
      "name": "anchorEvent",
      "outputs": [],
      "stateMutability": "nonpayable",
      "type": "function"
    },
    {
      "inputs": [
        {
          "internalType": "bytes32",
          "name": "anchorId",
          "type": "bytes32"
        }
      ],
      "name": "anchorExists",
      "outputs": [
        {
          "internalType": "bool",
          "name": "",
          "type": "bool"
        }
      ],
      "stateMutability": "view",
      "type": "function"
    },
    {
      "inputs": [
        {
          "internalType": "bytes32",
          "name": "anchorId",
          "type": "bytes32"
        }
      ],
      "name": "getAnchor",
      "outputs": [
        {
          "components": [
            {
              "internalType": "bytes32",
              "name": "eventHash",
              "type": "bytes32"
            },
            {
              "internalType": "string",
              "name": "eventType",
              "type": "string"
            },
            {
              "internalType": "string",
              "name": "entityId",
              "type": "string"
            },
            {
              "internalType": "string",
              "name": "ipfsCid",
              "type": "string"
            },
            {
              "internalType": "uint256",
              "name": "occurredAt",
              "type": "uint256"
            },
            {
              "internalType": "uint256",
              "name": "anchoredAt",
              "type": "uint256"
            },
            {
              "internalType": "address",
              "name": "submitter",
              "type": "address"
            },
            {
              "internalType": "bool",
              "name": "exists",
              "type": "bool"
            }
          ],
          "internalType": "struct AuditEventRegistry.AnchoredEvent",
          "name": "",
          "type": "tuple"
        }
      ],
      "stateMutability": "view",
      "type": "function"
    },
    {
      "inputs": [
        {
          "internalType": "address",
          "name": "",
          "type": "address"
        }
      ],
      "name": "isRelayer",
      "outputs": [
        {
          "internalType": "bool",
          "name": "",
          "type": "bool"
        }
      ],
      "stateMutability": "view",
      "type": "function"
    },
    {
      "inputs": [],
      "name": "owner",
      "outputs": [
        {
          "internalType": "address",
          "name": "",
          "type": "address"
        }
      ],
      "stateMutability": "view",
      "type": "function"
    },
    {
      "inputs": [
        {
          "internalType": "address",
          "name": "relayer",
          "type": "address"
        },
        {
          "internalType": "bool",
          "name": "enabled",
          "type": "bool"
        }
      ],
      "name": "setRelayer",
      "outputs": [],
      "stateMutability": "nonpayable",
      "type": "function"
    },
    {
      "inputs": [
        {
          "internalType": "address",
          "name": "newOwner",
          "type": "address"
        }
      ],
      "name": "transferOwnership",
      "outputs": [],
      "stateMutability": "nonpayable",
      "type": "function"
    }
  ],
  "bytecode": "0x608060405234801561001057600080fd5b50604051610e2a380380610e2a83398101604081905261002f916100a4565b6001600160a01b0381166100565760405163d92e233d60e01b815260040160405180910390fd5b600080546001600160a01b0319166001600160a01b03831690811782556040519091907f8be0079c531659141344cd1fd0a4f28419497f9722a3daafe3b4186f6b6457e0908290a3506100d4565b6000602082840312156100b657600080fd5b81516001600160a01b03811681146100cd57600080fd5b9392505050565b610d47806100e36000396000f3fe608060405234801561001057600080fd5b506004361061007d5760003560e01c8063af9cedbb1161005b578063af9cedbb14610105578063ecd8dc3a14610132578063eeebc00014610147578063f2fde38b1461015a57600080fd5b8063541d5548146100825780637feb51d9146100ba5780638da5cb5b146100da575b600080fd5b6100a56100903660046108cd565b60016020526000908152604090205460ff1681565b60405190151581526020015b60405180910390f35b6100cd6100c83660046108ef565b61016d565b6040516100b1919061094e565b6000546100ed906001600160a01b031681565b6040516001600160a01b0390911681526020016100b1565b6100a56101133660046108ef565b600090815260026020526040902060060154600160a01b900460ff1690565b6101456101403660046109fb565b610411565b005b610145610155366004610a80565b6104c2565b6101456101683660046108cd565b61080f565b6101c360405180610100016040528060008019168152602001606081526020016060815260200160608152602001600081526020016000815260200160006001600160a01b031681526020016000151581525090565b60006002600084815260200190815260200160002060405180610100016040529081600082015481526020016001820180546101fe90610b35565b80601f016020809104026020016040519081016040528092919081815260200182805461022a90610b35565b80156102775780601f1061024c57610100808354040283529160200191610277565b820191906000526020600020905b81548152906001019060200180831161025a57829003601f168201915b5050505050815260200160028201805461029090610b35565b80601f01602080910402602001604051908101604052809291908181526020018280546102bc90610b35565b80156103095780601f106102de57610100808354040283529160200191610309565b820191906000526020600020905b8154815290600101906020018083116102ec57829003601f168201915b5050505050815260200160038201805461032290610b35565b80601f016020809104026020016040519081016040528092919081815260200182805461034e90610b35565b801561039b5780601f106103705761010080835404028352916020019161039b565b820191906000526020600020905b81548152906001019060200180831161037e57829003601f168201915b505050918352505060048201546020820152600582015460408201526006909101546001600160a01b0381166060830152600160a01b900460ff16151560809091015260e081015190915061040b57604051633340d4c960e21b8152600481018490526024015b60405180910390fd5b92915050565b6000546001600160a01b0316331461043c576040516330cd747160e01b815260040160405180910390fd5b6001600160a01b0382166104635760405163d92e233d60e01b815260040160405180910390fd5b6001600160a01b038216600081815260016020908152604091829020805460ff191685151590811790915591519182527f4b36b2e66f38ed349bec532105790177f1283bcbc094e6cd48565195d3033c43910160405180910390a25050565b6000546001600160a01b03163314806104ea57503360009081526001602052604090205460ff165b6105075760405163ea8e4eb560e01b815260040160405180910390fd5b600089815260026020526040902060060154600160a01b900460ff161561054457604051630e9f1d2f60e01b8152600481018a9052602401610402565b8761057e57604051632b8f831760e01b81526020600482015260096024820152680caeccadce890c2e6d60bb1b6044820152606401610402565b60008690036105bc57604051632b8f831760e01b81526020600482015260096024820152686576656e745479706560b81b6044820152606401610402565b60008490036105f957604051632b8f831760e01b8152602060048201526008602482015267195b9d1a5d1e525960c21b6044820152606401610402565b8060000361063757604051632b8f831760e01b815260206004820152600a6024820152691bd8d8dd5c9c9959105d60b21b6044820152606401610402565b60004290506040518061010001604052808a815260200189898080601f016020809104026020016040519081016040528093929190818152602001838380828437600092019190915250505090825250604080516020601f8a0181900481028201810190925288815291810191908990899081908401838280828437600092019190915250505090825250604080516020601f880181900481028201810190925286815291810191908790879081908401838280828437600092018290525093855250505060208083018690526040808401869052336060850152600160809094018490528e8352600282529091208351815590830151909182019061073d9082610bd4565b50604082015160028201906107529082610bd4565b50606082015160038201906107679082610bd4565b506080820151600482015560a0820151600582015560c08201516006909101805460e0909301511515600160a01b026001600160a81b03199093166001600160a01b039092169190911791909117905560405133908a908c907f9014c675b478aa121401223cc23c77a9d9344aa80fcd4f8d274b31f7cdcba8e1906107fb908d908d908d908d908d908d908d908d90610cbd565b60405180910390a450505050505050505050565b6000546001600160a01b0316331461083a576040516330cd747160e01b815260040160405180910390fd5b6001600160a01b0381166108615760405163d92e233d60e01b815260040160405180910390fd5b600080546001600160a01b038381166001600160a01b0319831681178455604051919092169283917f8be0079c531659141344cd1fd0a4f28419497f9722a3daafe3b4186f6b6457e09190a35050565b80356001600160a01b03811681146108c857600080fd5b919050565b6000602082840312156108df57600080fd5b6108e8826108b1565b9392505050565b60006020828403121561090157600080fd5b5035919050565b6000815180845260005b8181101561092e57602081850181015186830182015201610912565b506000602082860101526020601f19601f83011685010191505092915050565b602081528151602082015260006020830151610100806040850152610977610120850183610908565b91506040850151601f19808685030160608701526109958483610908565b93506060870151915080868503016080870152506109b38382610908565b925050608085015160a085015260a085015160c085015260c08501516109e460e08601826001600160a01b03169052565b5060e0850151801515858301525090949350505050565b60008060408385031215610a0e57600080fd5b610a17836108b1565b915060208301358015158114610a2c57600080fd5b809150509250929050565b60008083601f840112610a4957600080fd5b50813567ffffffffffffffff811115610a6157600080fd5b602083019150836020828501011115610a7957600080fd5b9250929050565b600080600080600080600080600060c08a8c031215610a9e57600080fd5b8935985060208a0135975060408a013567ffffffffffffffff80821115610ac457600080fd5b610ad08d838e01610a37565b909950975060608c0135915080821115610ae957600080fd5b610af58d838e01610a37565b909750955060808c0135915080821115610b0e57600080fd5b50610b1b8c828d01610a37565b9a9d999c50979a9699959894979660a00135949350505050565b600181811c90821680610b4957607f821691505b602082108103610b6957634e487b7160e01b600052602260045260246000fd5b50919050565b634e487b7160e01b600052604160045260246000fd5b601f821115610bcf57600081815260208120601f850160051c81016020861015610bac5750805b601f850160051c820191505b81811015610bcb57828155600101610bb8565b5050505b505050565b815167ffffffffffffffff811115610bee57610bee610b6f565b610c0281610bfc8454610b35565b84610b85565b602080601f831160018114610c375760008415610c1f5750858301515b600019600386901b1c1916600185901b178555610bcb565b600085815260208120601f198616915b82811015610c6657888601518255948401946001909101908401610c47565b5085821015610c845787850151600019600388901b60f8161c191681555b5050505050600190811b01905550565b81835281816020850137506000828201602090810191909152601f909101601f19169091010190565b60a081526000610cd160a083018a8c610c94565b8281036020840152610ce481898b610c94565b90508281036040840152610cf9818789610c94565b6060840195909552505060800152969550505050505056fea26469706673582212207229dfcccf4d39bbaf4818fd54b4c80d58d30f999f8bcd41497ce84ed748b2b564736f6c63430008140033",
  "linkReferences": {},
  "deployedLinkReferences": {}
}